{
  "_format": "hh-sol-artifact-1",
  "contractName": "AirdropToken",
  "sourceName": "AirdropToken.sol",
  "abi": [
    {
      "inputs": [
        {
          "internalType": "address",
          "name": "_token",
          "type": "address"
        },
        {
          "internalType": "uint256",
          "name": "_airdropAllocation",
          "type": "uint256"
        }
      ],
      "stateMutability": "nonpayable",
      "type": "constructor"
    },
    {
      "anonymous": false,
      "inputs": [
        {
          "indexed": false,
          "internalType": "uint256",
          "name": "newAllocation",
          "type": "uint256"
        }
      ],
      "name": "AirdropAllocation",
      "type": "event"
    },
    {
      "anonymous": false,
      "inputs": [
        {
          "indexed": true,
          "internalType": "address",
          "name": "sender",
          "type": "address"
        },
        {
          "indexed": false,
          "internalType": "uint256",
          "name": "amount",
          "type": "uint256"
        },
        {
          "indexed": false,
          "internalType": "uint256",
          "name": "totalRecipients",
          "type": "uint256"
        }
      ],
      "name": "AirdropExecuted",
      "type": "event"
    },
    {
      "inputs": [],
      "name": "airdropQuantity",
      "outputs": [
        {
          "internalType": "uint256",
          "name": "",
          "type": "uint256"
        }
      ],
      "stateMutability": "view",
      "type": "function"
    },
    {
      "inputs": [],
      "name": "owner",
      "outputs": [
        {
          "internalType": "address",
          "name": "",
          "type": "address"
        }
      ],
      "stateMutability": "view",
      "type": "function"
    },
    {
      "inputs": [],
      "name": "token",
      "outputs": [
        {
          "internalType": "contract IERC20",
          "name": "",
          "type": "address"
        }
      ],
      "stateMutability": "view",
      "type": "function"
    },
    {
      "inputs": [
        {
          "internalType": "uint256",
          "name": "_amount",
          "type": "uint256"
        }
      ],
      "name": "tokenApproval",
      "outputs": [],
      "stateMutability": "nonpayable",
      "type": "function"
    },
    {
      "inputs": [
        {
          "internalType": "uint256",
          "name": "_newAllocation",
          "type": "uint256"
        }
      ],
      "name": "tokensAllocation",
      "outputs": [],
      "stateMutability": "nonpayable",
      "type": "function"
    },
    {
      "inputs": [
        {
          "internalType": "address[]",
          "name": "_recipients",
          "type": "address[]"
        },
        {
          "internalType": "uint256",
          "name": "_amount",
          "type": "uint256"
        }
      ],
      "name": "transferTokens",
      "outputs": [],
      "stateMutability": "nonpayable",
      "type": "function"
    }
  ],
  "bytecode": "0x60806040523480156200001157600080fd5b50604051620011e5380380620011e5833981810160405281019062000037919062000175565b600160008190555033600160006101000a81548173ffffffffffffffffffffffffffffffffffffffff021916908373ffffffffffffffffffffffffffffffffffffffff16021790555081600260006101000a81548173ffffffffffffffffffffffffffffffffffffffff021916908373ffffffffffffffffffffffffffffffffffffffff160217905550806003819055505050620001bc565b600080fd5b600073ffffffffffffffffffffffffffffffffffffffff82169050919050565b60006200010282620000d5565b9050919050565b6200011481620000f5565b81146200012057600080fd5b50565b600081519050620001348162000109565b92915050565b6000819050919050565b6200014f816200013a565b81146200015b57600080fd5b50565b6000815190506200016f8162000144565b92915050565b600080604083850312156200018f576200018e620000d0565b5b60006200019f8582860162000123565b9250506020620001b2858286016200015e565b9150509250929050565b61101980620001cc6000396000f3fe608060405234801561001057600080fd5b50600436106100625760003560e01c806306715ccb1461006757806360d6ac3e14610085578063782f3de4146100a15780638da5cb5b146100bd578063d7b99c5d146100db578063fc0c546a146100f7575b600080fd5b61006f610115565b60405161007c91906107eb565b60405180910390f35b61009f600480360381019061009a9190610846565b61011b565b005b6100bb60048036038101906100b69190610846565b6102a1565b005b6100c5610372565b6040516100d291906108b4565b60405180910390f35b6100f560048036038101906100f09190610a54565b610398565b005b6100ff610752565b60405161010c9190610b0f565b60405180910390f35b60035481565b600160009054906101000a900473ffffffffffffffffffffffffffffffffffffffff1673ffffffffffffffffffffffffffffffffffffffff163373ffffffffffffffffffffffffffffffffffffffff16146101ab576040517f08c379a00000000000000000000000000000000000000000000000000000000081526004016101a290610bad565b60405180910390fd5b600081116101ee576040517f08c379a00000000000000000000000000000000000000000000000000000000081526004016101e590610c19565b60405180910390fd5b600260009054906101000a900473ffffffffffffffffffffffffffffffffffffffff1673ffffffffffffffffffffffffffffffffffffffff1663095ea7b330836040518363ffffffff1660e01b815260040161024b929190610c39565b602060405180830381600087803b15801561026557600080fd5b505af1158015610279573d6000803e3d6000fd5b505050506040513d601f19601f8201168201806040525081019061029d9190610c9a565b5050565b600160009054906101000a900473ffffffffffffffffffffffffffffffffffffffff1673ffffffffffffffffffffffffffffffffffffffff163373ffffffffffffffffffffffffffffffffffffffff1614610331576040517f08c379a000000000000000000000000000000000000000000000000000000000815260040161032890610bad565b60405180910390fd5b806003819055507fc5a90cd32bb07bb36408b71b0ef5f4f8fe6a8521ef5c28eb26ae61683c57bf338160405161036791906107eb565b60405180910390a150565b600160009054906101000a900473ffffffffffffffffffffffffffffffffffffffff1681565b600160009054906101000a900473ffffffffffffffffffffffffffffffffffffffff1673ffffffffffffffffffffffffffffffffffffffff163373ffffffffffffffffffffffffffffffffffffffff1614610428576040517f08c379a000000000000000000000000000000000000000000000000000000000815260040161041f90610bad565b60405180910390fd5b610430610778565b6000825111610474576040517f08c379a000000000000000000000000000000000000000000000000000000000815260040161046b90610d13565b60405180910390fd5b600081116104b7576040517f08c379a00000000000000000000000000000000000000000000000000000000081526004016104ae90610d7f565b60405180910390fd5b600082516003546104c89190610dce565b905080600260009054906101000a900473ffffffffffffffffffffffffffffffffffffffff1673ffffffffffffffffffffffffffffffffffffffff166370a08231306040518263ffffffff1660e01b815260040161052691906108b4565b60206040518083038186803b15801561053e57600080fd5b505afa158015610552573d6000803e3d6000fd5b505050506040513d601f19601f820116820180604052508101906105769190610e3d565b10156105b7576040517f08c379a00000000000000000000000000000000000000000000000000000000081526004016105ae90610eb6565b60405180910390fd5b60005b83518110156106f157600073ffffffffffffffffffffffffffffffffffffffff168482815181106105ee576105ed610ed6565b5b602002602001015173ffffffffffffffffffffffffffffffffffffffff16146106de57600260009054906101000a900473ffffffffffffffffffffffffffffffffffffffff1673ffffffffffffffffffffffffffffffffffffffff1663a9059cbb85838151811061066257610661610ed6565b5b60200260200101516003546040518363ffffffff1660e01b815260040161068a929190610c39565b602060405180830381600087803b1580156106a457600080fd5b505af11580156106b8573d6000803e3d6000fd5b505050506040513d601f19601f820116820180604052508101906106dc9190610c9a565b505b80806106e990610f05565b9150506105ba565b503373ffffffffffffffffffffffffffffffffffffffff167f171b2f9dc7a4c7eaa8ca718bcac62fbec15d147f033f38e42971b7ccabe9a469600354855160405161073d929190610f4e565b60405180910390a25061074e6107c8565b5050565b600260009054906101000a900473ffffffffffffffffffffffffffffffffffffffff1681565b600260005414156107be576040517f08c379a00000000000000000000000000000000000000000000000000000000081526004016107b590610fc3565b60405180910390fd5b6002600081905550565b6001600081905550565b6000819050919050565b6107e5816107d2565b82525050565b600060208201905061080060008301846107dc565b92915050565b6000604051905090565b600080fd5b600080fd5b610823816107d2565b811461082e57600080fd5b50565b6000813590506108408161081a565b92915050565b60006020828403121561085c5761085b610810565b5b600061086a84828501610831565b91505092915050565b600073ffffffffffffffffffffffffffffffffffffffff82169050919050565b600061089e82610873565b9050919050565b6108ae81610893565b82525050565b60006020820190506108c960008301846108a5565b92915050565b600080fd5b6000601f19601f8301169050919050565b7f4e487b7100000000000000000000000000000000000000000000000000000000600052604160045260246000fd5b61091d826108d4565b810181811067ffffffffffffffff8211171561093c5761093b6108e5565b5b80604052505050565b600061094f610806565b905061095b8282610914565b919050565b600067ffffffffffffffff82111561097b5761097a6108e5565b5b602082029050602081019050919050565b600080fd5b61099a81610893565b81146109a557600080fd5b50565b6000813590506109b781610991565b92915050565b60006109d06109cb84610960565b610945565b905080838252602082019050602084028301858111156109f3576109f261098c565b5b835b81811015610a1c5780610a0888826109a8565b8452602084019350506020810190506109f5565b5050509392505050565b600082601f830112610a3b57610a3a6108cf565b5b8135610a4b8482602086016109bd565b91505092915050565b60008060408385031215610a6b57610a6a610810565b5b600083013567ffffffffffffffff811115610a8957610a88610815565b5b610a9585828601610a26565b9250506020610aa685828601610831565b9150509250929050565b6000819050919050565b6000610ad5610ad0610acb84610873565b610ab0565b610873565b9050919050565b6000610ae782610aba565b9050919050565b6000610af982610adc565b9050919050565b610b0981610aee565b82525050565b6000602082019050610b246000830184610b00565b92915050565b600082825260208201905092915050565b7f4f6e6c792074686520636f6e7472616374206f776e65722063616e2063616c6c60008201527f20746869732066756e6374696f6e000000000000000000000000000000000000602082015250565b6000610b97602e83610b2a565b9150610ba282610b3b565b604082019050919050565b60006020820190508181036000830152610bc681610b8a565b9050919050565b7f496e76616c696420617070726f76616c20616d6f756e74000000000000000000600082015250565b6000610c03601783610b2a565b9150610c0e82610bcd565b602082019050919050565b60006020820190508181036000830152610c3281610bf6565b9050919050565b6000604082019050610c4e60008301856108a5565b610c5b60208301846107dc565b9392505050565b60008115159050919050565b610c7781610c62565b8114610c8257600080fd5b50565b600081519050610c9481610c6e565b92915050565b600060208284031215610cb057610caf610810565b5b6000610cbe84828501610c85565b91505092915050565b7f4e6f20726563697069656e747320737065636966696564000000000000000000600082015250565b6000610cfd601783610b2a565b9150610d0882610cc7565b602082019050919050565b60006020820190508181036000830152610d2c81610cf0565b9050919050565b7f496e76616c696420616d6f756e74000000000000000000000000000000000000600082015250565b6000610d69600e83610b2a565b9150610d7482610d33565b602082019050919050565b60006020820190508181036000830152610d9881610d5c565b9050919050565b7f4e487b7100000000000000000000000000000000000000000000000000000000600052601160045260246000fd5b6000610dd9826107d2565b9150610de4836107d2565b9250817fffffffffffffffffffffffffffffffffffffffffffffffffffffffffffffffff0483118215151615610e1d57610e1c610d9f565b5b828202905092915050565b600081519050610e378161081a565b92915050565b600060208284031215610e5357610e52610810565b5b6000610e6184828501610e28565b91505092915050565b7f496e73756666696369656e7420636f6e74726163742062616c616e6365000000600082015250565b6000610ea0601d83610b2a565b9150610eab82610e6a565b602082019050919050565b60006020820190508181036000830152610ecf81610e93565b9050919050565b7f4e487b7100000000000000000000000000000000000000000000000000000000600052603260045260246000fd5b6000610f10826107d2565b91507fffffffffffffffffffffffffffffffffffffffffffffffffffffffffffffffff821415610f4357610f42610d9f565b5b600182019050919050565b6000604082019050610f6360008301856107dc565b610f7060208301846107dc565b9392505050565b7f5265656e7472616e637947756172643a207265656e7472616e742063616c6c00600082015250565b6000610fad601f83610b2a565b9150610fb882610f77565b602082019050919050565b60006020820190508181036000830152610fdc81610fa0565b905091905056fea2646970667358221220d6198f573d0b6fb9596e7a0ce30b35e80dede9336faa09bc95f4ac2f62a1014964736f6c63430008090033",
  "linkReferences": {},
  "deployedLinkReferences": {}
}